{
  "contractName": "ExerciceSolution",
  "abi": [
    {
      "inputs": [
        {
          "internalType": "contract MyToken",
          "name": "_mytoken",
          "type": "address"
        }
      ],
      "stateMutability": "nonpayable",
      "type": "constructor"
    },
    {
      "inputs": [],
      "name": "mytoken",
      "outputs": [
        {
          "internalType": "contract MyToken",
          "name": "",
          "type": "address"
        }
      ],
      "stateMutability": "view",
      "type": "function"
    },
    {
      "inputs": [],
      "name": "ERC721Address",
      "outputs": [
        {
          "internalType": "address",
          "name": "",
          "type": "address"
        }
      ],
      "stateMutability": "nonpayable",
      "type": "function"
    },
    {
      "inputs": [],
      "name": "mintATokenForMe",
      "outputs": [
        {
          "internalType": "uint256",
          "name": "",
          "type": "uint256"
        }
      ],
      "stateMutability": "nonpayable",
      "type": "function"
    },
    {
      "inputs": [
        {
          "internalType": "bytes",
          "name": "_signature",
          "type": "bytes"
        }
      ],
      "name": "mintATokenForMeWithASignature",
      "outputs": [
        {
          "internalType": "uint256",
          "name": "",
          "type": "uint256"
        }
      ],
      "stateMutability": "nonpayable",
      "type": "function"
    },
    {
      "inputs": [
        {
          "internalType": "bytes32",
          "name": "_hash",
          "type": "bytes32"
        },
        {
          "internalType": "bytes",
          "name": "_signature",
          "type": "bytes"
        }
      ],
      "name": "getAddressFromSignature",
      "outputs": [
        {
          "internalType": "address",
          "name": "",
          "type": "address"
        }
      ],
      "stateMutability": "nonpayable",
      "type": "function"
    },
    {
      "inputs": [
        {
          "internalType": "bytes32",
          "name": "_hash",
          "type": "bytes32"
        },
        {
          "internalType": "bytes",
          "name": "_signature",
          "type": "bytes"
        }
      ],
      "name": "signerIsWhitelisted",
      "outputs": [
        {
          "internalType": "bool",
          "name": "",
          "type": "bool"
        }
      ],
      "stateMutability": "nonpayable",
      "type": "function"
    },
    {
      "inputs": [
        {
          "internalType": "address",
          "name": "_signer",
          "type": "address"
        }
      ],
      "name": "whitelist",
      "outputs": [
        {
          "internalType": "bool",
          "name": "",
          "type": "bool"
        }
      ],
      "stateMutability": "nonpayable",
      "type": "function"
    }
  ],
  "bytecode": "0x608060405234801561001057600080fd5b506040516105953803806105958339818101604052602081101561003357600080fd5b8101908080519060200190929190505050806000806101000a81548173ffffffffffffffffffffffffffffffffffffffff021916908373ffffffffffffffffffffffffffffffffffffffff16021790555050610501806100946000396000f3fe608060405234801561001057600080fd5b506004361061007d5760003560e01c80637d851a131161005b5780637d851a13146101d95780639a9a291f146102745780639b19251a14610301578063ac4fec211461035d5761007d565b8063574490cd146100825780635eab74fc146100cc57806379d3360614610116575b600080fd5b61008a61037b565b604051808273ffffffffffffffffffffffffffffffffffffffff1673ffffffffffffffffffffffffffffffffffffffff16815260200191505060405180910390f35b6100d46103a4565b604051808273ffffffffffffffffffffffffffffffffffffffff1673ffffffffffffffffffffffffffffffffffffffff16815260200191505060405180910390f35b6101976004803603604081101561012c57600080fd5b81019080803590602001909291908035906020019064010000000081111561015357600080fd5b82018360208201111561016557600080fd5b8035906020019184600183028401116401000000008311171561018757600080fd5b90919293919293905050506103c9565b604051808273ffffffffffffffffffffffffffffffffffffffff1673ffffffffffffffffffffffffffffffffffffffff16815260200191505060405180910390f35b61025a600480360360408110156101ef57600080fd5b81019080803590602001909291908035906020019064010000000081111561021657600080fd5b82018360208201111561022857600080fd5b8035906020019184600183028401116401000000008311171561024a57600080fd5b90919293919293905050506103d2565b604051808215151515815260200191505060405180910390f35b6102eb6004803603602081101561028a57600080fd5b81019080803590602001906401000000008111156102a757600080fd5b8201836020820111156102b957600080fd5b803590602001918460018302840111640100000000831117156102db57600080fd5b90919293919293905050506103db565b6040518082815260200191505060405180910390f35b6103436004803603602081101561031757600080fd5b81019080803573ffffffffffffffffffffffffffffffffffffffff1690602001909291905050506103e3565b604051808215151515815260200191505060405180910390f35b6103656103ea565b6040518082815260200191505060405180910390f35b60008060009054906101000a900473ffffffffffffffffffffffffffffffffffffffff16905090565b6000809054906101000a900473ffffffffffffffffffffffffffffffffffffffff1681565b60009392505050565b60009392505050565b600092915050565b6000919050565b60008060009054906101000a900473ffffffffffffffffffffffffffffffffffffffff1673ffffffffffffffffffffffffffffffffffffffff1663765797c5336040518263ffffffff1660e01b8152600401808273ffffffffffffffffffffffffffffffffffffffff1673ffffffffffffffffffffffffffffffffffffffff168152602001915050602060405180830381600087803b15801561048c57600080fd5b505af11580156104a0573d6000803e3d6000fd5b505050506040513d60208110156104b657600080fd5b8101908080519060200190929190505050509056fea2646970667358221220765a891c305585e3ea32533112c880ab43d91e28b27e3bbbe59dc24639f8427f64736f6c63430006020033",
  "source": "pragma solidity ^0.6.0;\r\n\r\nimport \"./IExerciceSolution.sol\";\r\nimport \"./MyToken.sol\";\r\n\r\ncontract ExerciceSolution is IExerciceSolution{\r\n\r\n    MyToken public mytoken;\r\n\r\n    constructor(MyToken _mytoken)public{\r\n        mytoken = _mytoken;\r\n    }   \r\n\r\n    function ERC721Address() external override returns (address){\r\n        return address(mytoken);\r\n    }\r\n\r\n\tfunction mintATokenForMe() external override returns (uint256){\r\n        mytoken.GetNewToken(msg.sender);\r\n    }\r\n\r\n\tfunction mintATokenForMeWithASignature(bytes calldata _signature) external override returns (uint256){\r\n\r\n    }\r\n\r\n\tfunction getAddressFromSignature(bytes32 _hash, bytes calldata _signature) external override returns (address){\r\n\r\n    }\r\n\r\n\tfunction signerIsWhitelisted(bytes32 _hash, bytes calldata _signature) external override returns (bool){\r\n\r\n    }\r\n\r\n\tfunction whitelist(address _signer) external override returns (bool){\r\n\r\n    }\r\n}",
  "sourcePath": "C:\\Users\\Lucas Kaczmarski\\OneDrive - De Vinci\\Documents\\Esilv\\A4-S8\\Decentralized Finance\\TD4 - Signatures 101\\signatures-101\\contracts\\ExerciceSolution.sol",
  "compiler": {
    "name": "solc",
    "version": "0.6.2+commit.bacdbe57.Emscripten.clang"
  },
  "schemaVersion": "3.4.11",
  "updatedAt": "2023-02-24T15:25:21.681Z",
  "networkType": "ethereum",
  "devdoc": {
    "methods": {}
  },
  "userdoc": {
    "methods": {}
  }
}